:1000000012C0B7C22BC02AC029C028C027C026C032
:1000100025C024C023C022C021C020C01FC01EC0D4
:100020001DC01CC01BC011241FBECFE5D4E0DEBF25
:10003000CDBF11E0A0E6B0E0EEE3FDE002C0059028
:100040000D92A431B107D9F711E0A4E1B1E001C0EC
:100050001D92A632B107E1F7EFD36FC6D1CF80FF73
:1000600002C0AA9A01C0AA9881FF02C0AB9A01C03F
:10007000AB9882FF02C0AC9A01C0AC9883FF02C06B
:10008000AD9A0895AD980895CF93C82FA99A8295F7
:100090008F70E5DFA998A99A8C2FE1DFA99884E6F3
:1000A0008A95F1F7CF910895A898EECFA89AECCF52
:1000B000CF93DF93EC018991882311F0F7DFFBCF19
:1000C000DF91CF91089590E4699F800D112480689D
:1000D000EBCF81E0E9DF87EB9BE00197F1F700C010
:1000E0000000089582E0E0DF87EB9BE00197F1F7E5
:1000F00000C000000895CF93A29AA39AA49AA59A4B
:10010000A19AA09A83EE97E50197F1F700C000004D
:10011000A898A998C3E0A99A83E0A1DFA9988BE4E5
:100120009DE10197F1F700C00000C150A1F7A99A25
:1001300082E095DFA9988BED95E00197F1F700C07B
:10014000000088E2B1DF88E0AFDF81E0ADDF87EB60
:100150009BE00197F1F700C0000086E0A5DF8CE08E
:10016000CF91A2CF20E0203244F460FF1DC0C59A99
:10017000959587957795679503C038B33F7138BBE0
:10018000C49A38B33F7238BB2F5F283261F74111F0
:1001900004C0C39A88B3877305C0413049F4C29A3A
:1001A00088B38B7388BB089538B33F7138BBE0CFF9
:1001B00008952F923F924F925F926F927F928F920B
:1001C0009F92AF92BF92CF92DF92EF92FF920F93E6
:1001D0001F93CF93DF93CDB7DEB728970FB6F89470
:1001E000DEBF0FBECDBF9B01AC01CE0101967C01ED
:1001F00088E0F70111928A95E9F78E01075F1F4F9A
:100200006AE0462E512C612C712CCA01B901A30160
:1002100092013FD5F80162938F01EE15FF05A9F712
:100220001E01F9E02F0E311CC12CD12C760140E6C5
:10023000442E41EE542E4AE7642E44E1742E5AE0D7
:10024000852E912CA12CB12CF801A1918F01BB27F7
:10025000A7FDB095A301920107D5C60ED71EE81ED3
:10026000F91EC301B201A501940113D529013A0178
:100270000215130549F7C701B60128960FB6F89481
:10028000DEBF0FBECDBFDF91CF911F910F91FF90C9
:10029000EF90DF90CF90BF90AF909F908F907F9026
:1002A0006F905F904F903F902F9008954F925F9284
:1002B0006F927F929F92AF92BF92CF92DF92EF9216
:1002C000FF920F931F93CF93DF93CDB7DEB72B979A
:1002D0000FB6F894DEBF0FBECDBF97FF10C09B01D5
:1002E00077FF04C022273327261B370BB901882745
:1002F00077FD8095982FCC24C394D12C02C0C12CBB
:10030000D12C9E012F5F3F4F79012BE0F701119215
:100310002A95E9F720E2298309E010E0EEE29E2E1B
:10032000FAE04F2E512C612C712C98012370332749
:100330002230310531F4F701E00FF11F90820150B6
:1003400011095701A00EB11EA3019201A2D4FB0115
:10035000EB53FF4F8081F501808301501109B901F2
:10036000CA0117FFE2CFFE01329680E090E09C01C7
:100370002F5F3F4F4191403209F141E0C416D10453
:10038000E9F4F701E80FF91F2DE22083C70190DEA1
:100390002B960FB6F894DEBF0FBECDBFDF91CF9185
:1003A0001F910F91FF90EF90DF90CF90BF90AF9093
:1003B0009F907F906F905F904F900895C901D7CF25
:1003C00080911901811164C080E86EDE6091BD00EA
:1003D0007091BE008091BF009091C00067DF80ECFB
:1003E00063DE6091C1007091C2008091C300909162
:1003F000C4005CDF60911A01772767FD709561503A
:10040000710977FF03C07195619571098AE05BDE20
:1004100080ED90E04DDE60911A018AE054DE82EDBD
:1004200090E046DE8091600087FD05C08CEC3CDEEC
:1004300084ED90E03DDE809160008F3F29F48CECEC
:1004400033DE80ED90E034DE8091B400811105C090
:100450008CE82ADE86ED90E02BDE8091B4008130BE
:1004600029F48CE821DE8BED90E022DE80911801EA
:10047000811105C08EEC18DE80EE90E019DE8091CF
:100480001801813029F48EEC0FDE83EE90E010DE4F
:1004900080911901813091F480E806DE86EE90E0CB
:1004A00007DE80EC01DEE0916200F0916300EE0F68
:1004B000FF1FEC58FF4F80819181FADD8091190177
:1004C000823031F580E8F0DD8FEE90E0F1DD80ECF8
:1004D000EBDDE091B40084E0E802F0011124EB547C
:1004E000FF4F6081718182819381E0DE8091B40051
:1004F000811105C08DE8D8DD87ED90E0D9DD8091D0
:10050000B400813029F48DE8CFDD8CED90E0D0DDB2
:1005100080911901833031F580E8C6DD88EF90E0E5
:10052000C7DD80ECC1DDE091B40084E0E802F001B9
:100530001124E25EFE4F6081718182819381B6DE7B
:100540008091B400811105C08DE8AEDD87ED90E0AB
:10055000AFDD8091B400813029F48DE8A5DD8CED0C
:1005600090E0A6CD089525DE40E0FCCD22DE41E0FE
:10057000F9CD1F920F920FB60F921124CF92DF92F6
:10058000EF92FF920F931F932F933F934F935F939D
:100590006F937F938F939F93AF93BF93CF93DF938B
:1005A000EF93FF9380911901811170C081E08093D6
:1005B0001B01C0911A01E0916200F0916300EE0FFF
:1005C000FF1FEC59FF4FC080D180EE24D7FCE09490
:1005D000FE2C24E0C202E00111248E0103541F4FBF
:1005E000F8016081718182819381A701960151D3C5
:1005F000C701B6013FD3F80160837183828393837F
:10060000819B0AC0DC01CB018C0D9D1DAE1DBF1D61
:1006100080839183A283B38381990FC0FE01E35449
:10062000FF4F80819181A281B3818C199D09AE0910
:10063000BF0980839183A283B383FE01E354FF4FFC
:1006400080819181A281B381803A9648A140B10511
:1006500044F480EA96E8A1E0B0E080839183A2832D
:10066000B383C354DF4F88819981AA81BB818138CC
:10067000934CA94CB1400CF43FC080E893ECA9EC3A
:10068000B1E088839983AA83BB8336C08130A1F50A
:1006900080911C0190911D01019690931D01809302
:1006A0001C010A9749F510921D0110921C01819BB3
:1006B0000FC0809162009091630001969093630057
:1006C00080936200089724F01092630010926200F9
:1006D000819911C08091620090916300019790937D
:1006E00063008093620097FF06C087E090E09093DC
:1006F00063008093620064DE80911901823051F5BD
:1007000081E080931B01819B13C0E091B40024E041
:10071000E202F0011124EB54FF4F80819181A2810C
:10072000B3810596A11DB11D80839183A283B383FC
:10073000819969C0E091B40084E0E802F0011124DD
:10074000EB54FF4F80819181A281B3810597A1096C
:10075000B10955C0833009F056C081E080931B0178
:100760002091B400819B11C084E02802F001112483
:10077000E25EFE4F80819181A281B3810596A11D29
:10078000B11D80839183A283B383819911C084E0DA
:100790002802F0011124E25EFE4F80819181A28146
:1007A000B3810597A109B10980839183A283B383A3
:1007B00084E02802F0011124EF01C25EDE4F88813F
:1007C0009981AA81BB8189389341A105B10544F083
:1007D00088E893E1A0E0B0E088839983AA83BB8393
:1007E000E25EFE4F80819181A281B38188379C4E69
:1007F000AF4FBF4F44F488E79CEEAFEFBFEF80836D
:100800009183A283B383FF91EF91DF91CF91BF9149
:10081000AF919F918F917F916F915F914F913F9198
:100820002F911F910F91FF90EF90DF90CF900F903D
:100830000FBE0F901F9018958FE387BB18BA84BB2B
:1008400015BA11BA8FEF82BB56DC43DC81E091E030
:100850002FDC2FEB87E299E0215080409040E1F7B8
:1008600000C0000036DC8FE091E022DCAFEBB7E2A5
:1008700029E0A150B0402040E1F700C0000029DC91
:1008800085B7836085BF8BB780648BBF78944091B8
:10089000B40084E04802A0011124DA01AB54BF4F38
:1008A000E0911A0194E0E902F0011124E354FF4FB2
:1008B0006D917D918D919C91008111812281338177
:1008C000601B710B820B930BFA01E25EFE4F0081FD
:1008D000118122813381600F711F821F931F43DEBC
:1008E0004091B400A4E04A02A0011124DA01AB5403
:1008F000BF4FE0911A0124E0E202F0011124E35419
:10090000FF4F6D917D918D919C910081118122818C
:100910003381601B710B820B930BFA01E25EFE4F79
:100920000081118122813381600F711F821F931F0B
:100930001ADE8091B400A4E08A02C0011124DC0117
:10094000AB54BF4FFC01E25EFE4F6D917D918D91E6
:100950009C910081118122813381600F711F821F60
:10096000931F04DE8091B400B4E08B02C001112417
:10097000DC01AB54BF4FFC01E25EFE4F6D917D91F7
:100980008D919C910081118122813381600F711FB3
:10099000821F931FEBDD14DDC0E0D0E000E011E02A
:1009A000BB24BA9480911B01813009F070C0809102
:1009B0001801A091B400E0911A01813031F524E0D2
:1009C000A202D0011124AB54BF4F84E0E802F00131
:1009D0001124E354FF4F6D917D918D919C91C080C6
:1009E000D180E280F3806C197D098E099F09BBDDFF
:1009F000E091B40094E0E902F0011124EB54FF4FC0
:100A000060817181828193813EC0B4E0AB02A0011C
:100A10001124CA018B549F4F24E0E202F0011124FB
:100A2000E354FF4FDC016D917D918D919C91C080CD
:100A3000D180E280F3806C197D098E099F09DA016B
:100A4000A25EBE4FCD90DD90ED90FC906C0D7D1DB3
:100A50008E1D9F1D88DD8091B400B4E08B02C00123
:100A60001124DC01AB54BF4FFC01E25EFE4F6D91DF
:100A70007D918D919C91C080D180E280F3806C0D3E
:100A80007D1D8E1D9F1D72DD9BDC10921B01F09061
:100A9000170183990AC0F11012C010931801109326
:100AA00017018EDC10931B010AC021E0F21207C06F
:100AB000109218011092170183DCF0921B018499A7
:100AC00035C080911601811137C080911401909139
:100AD000150101969093150180931401803197427E
:100AE00059F5F7DA1093160180911901811124C08C
:100AF000809160008F3F71F480916200809360006C
:100B000080916100992787FD909590936300809371
:100B1000620009C0992787FD9095909363008093A8
:100B20006200B0926000D5DA4BDC06C0109216016C
:100B30001092150110921401859914C0011132CF41
:100B4000C031B7E2DB0709F08DC0809119018F5FDA
:100B500084301CF48093190102C010921901B9DA93
:100B60002FDC7FC0869919C08091190181111ACF9D
:100B7000011118CFC03127E2D20709F073C080916C
:100B80001A01992787FD9095019797FF03C09195CA
:100B90008195910980931A0161C0879B04C0C0E0D0
:100BA000D0E000E0FFCE80911901811118C0011141
:100BB00016C0C03187E2D80789F48091B400992724
:100BC00087FD9095019797FF03C0919581959109B5
:100BD0008093B400F5DB10931B0101E02196809116
:100BE0001901813049F4011121C001E0C03197E2BF
:100BF000D907D9F000E019C08230C1F4011116C044
:100C0000C031A7E2DA0789F48091B400992787FD03
:100C10009095019797FF03C09195819591098093D5
:100C2000B400CEDB10931B0101E0219680911901E5
:100C3000833009F0B7CE0111B5CEC031B7E2DB0782
:100C400089F48091B400992787FD9095019797FFCB
:100C500003C09195819591098093B400B1DB109305
:100C60001B0101E021969ECEB7FF2FC02ED0821B24
:100C7000930B0895DB018F939F9327D0BF91AF9182
:100C8000A29F800D911DA39F900DB29F900D1124E6
:100C90000895052E97FB16F400940FD057FD05D04C
:100CA0001ED007FC02D046F408C050954095309500
:100CB00021953F4F4F4F5F4F0895909580957095C8
:100CC00061957F4F8F4F9F4F08952BD0A59F900D1B
:100CD000B49F900DA49F800D911D11240895A1E251
:100CE0001A2EAA1BBB1BFD010DC0AA1FBB1FEE1FA6
:100CF000FF1FA217B307E407F50720F0A21BB30BF1
:100D0000E40BF50B661F771F881F991F1A9469F76C
:100D100060957095809590959B01AC01BD01CF01C8
:100D20000895A29FB001B39FC001A39F01D0B29FBD
:0E0D3000700D811D1124911D0895F894FFCFC0
:100D3E00FF070400010005000A00190032006400DC
:100D4E00E8031027AE00A800A2009C0096009000B9
:100D5E008A00840031306B487A0020316B487A006B
:100D6E00313030487A00203530487A00203235480C
:100D7E007A00203130487A00202035487A00202031
:100D8E0031487A0001645389008848890010CB38B5
:100D9E0000B0196D00303132333435363738390002
:100DAE0020003C004600204C534200205553420088
:100DBE0052780054780056464F2D73746570004279
:100DCE00464F2D74756E650049462D7368696674BD
:100DDE00004444532062792053513941544B0076DC
:040DEE00322E300071
:00000001FF
